:1000A800E582900005F0E0900006F0900001E0FF86
:1000B800900002E0FCA3E0FDA3E0FE8C828D838E1D
:1000C800F01211CD7003020169900006E0FB8C006C
:1000D8008D018E0275080074FB25084075C00788DD
:1000E8008289838AF01211CD24E0F509AF09BF6136
:1000F80000D0075059C000C001C002E5082BFAE53E
:100108000975F005A424EDF8741135F0F9E508280F
:10011800F582E439F583E493F9900055EFF0900007
:1001280056E9F08A82C007C006C005C004C003C0F3
:1001380002C001C000120E96D000D001D002D00338
:10014800D004D005D006D007D002D001D0000508D1
:100158008085900006E02406F00CBC00010D02002A
:08016800C3900006E0F58222BD
:1011ED00000000000000004F000000070007001481
:1011FD007F147F14242A7F2A122313086462364930
:10120D005522500005030000001C22410000412220
:10121D001C0014083E081408083E08080050300051
:10122D00000808080808006060000020100804028B
:10123D003E5149453E00427F4000426151494621A1
:10124D0041454B311814127F1027454545393C4A0D
:10125D00494930017109050336494949360649495D
:10126D00291E0036360000005636000008142241B3
:10127D00001414141414004122140802015109061B
:10128D00324979413E7E1111117E7F494949363EE1
:10129D00414141227F4141221C7F494949417F09FA
:1012AD000909013E4149497A7F0808087F00417FBD
:1012BD0041002040413F017F081422417F404040C2
:1012CD00407F020C027F7F0408107F3E4141413E6A
:1012DD007F090909063E4151215E7F0919294646BC
:1012ED004949493101017F01013F4040403F1F20E5
:1012FD0040201F3F4038403F6314081463070870B7
:10130D0008076151494543007F414100020408101F
:10131D00200041417F000402010204404040404052
:10132D00010204000020545454787F484444383856
:10133D0044444420384444487F3854545418087E5B
:10134D00090102064949493F7F0804047800447D9C
:10135D0040002040443D007F1028440000417F4064
:10136D00007C0418047C7C08040478384444443818
:10137D007C14141408081414187C7C080404084800
:10138D0054545420043F4440203C4040207C1C20B9
:10139D0040201C3C4030403C44281028440C505008
:1013AD00503C4464544C44000836410000007F001A
:1013BD000000413608000201020402080C0E0C0860
:0513CD000818381808A3
:10017000E582900009F0E0FF900007E0FEC3EF9EEB
:10018000402B900008E0FC7D008F027B00ECC39ABE
:10019000FCED9BFD8E02C3EA9CEB64808DF063F066
:1001A0008095F05004758204227582032290000825
:1001B000E0FCE4FDFBECC39FFCED9BFD7F00C3EE88
:1001C0009CEF64808DF063F08095F050047582019F
:1001D0002275820222AFF0AE83E58290000BF0EE32
:1001E000A3F0EFA3F090000AE0F51BAE1B8E05759F
:1001F000F008ED84FD90000EF0BD01005006900067
:100200000E7401F075F002EE84FE90000EE0FD75B4
:10021000F00284F51A90000BE0F9A3E0FAA3E0FBEA
:1002200089008A048B0788828C838FF0E41211077F
:100230000429F51CE43AF51D8B1EE51BC39D851CA6
:1002400082851D83851EF0121107740229F8E43A95
:10025000FC8B0788828C838FF0EE121107740329C0
:10026000F8E43AFC8B0788828C838FF0E51B12112F
:1002700007740429F51CE43AF51D8B1EEEC39DF5A9
:100280001F851C82851D83851EF0121107740529A8
:10029000F8E43AFC8B0788828C838FF0EE1211070A
:1002A000740629F8E43AFC8B0788828C838FF0EE81
:1002B000121107740729F8E43AFC8B0788828C83B3
:1002C0008FF0E51B121107740829F8E43AFC8B073C
:1002D00088828C838FF0E51F121107740929F8E4D6
:1002E0003AFC8B0788828C838FF0E4121107740A22
:1002F00029F8E43AFC8B0788828C838FF0EE121188
:1003000007740B29F8E43AFC8B0788828C838FF002
:10031000EE121107740C29F8E43AFC8B0788828CE2
:10032000838FF0E4121107740D29F8E43AFC8B076F
:1003300088828C838FF0E4121107740E29F8E43A56
:10034000FC8B0788828C838FF0EE121107740F29C3
:10035000F8E43AFC8B0788828C838FF0ED1211074A
:10036000741029F8E43AFC8B0788828C838FF0E4C0
:10037000121107741129F8E43AFC8B0788828C83E8
:100380008FF0E4121107741229F8E43AFC8B078805
:10039000828C838FF0ED121107741329F8E43AFC74
:1003A0008B0788828C838FF0EE121107741429F862
:1003B000E43AFC8B0788828C838FF0E41211077477
:1003C0001529F8E43AFC8B0788828C838FF0EE12B3
:1003D0001107741629F8E43AFC8B0788828C838F06
:1003E000F0ED121107741729F8E43AFC8B078882A4
:1003F0008C838FF0E51B121107741829F8E43AFC7E
:100400008B0788828C838FF0E4121107741929F509
:100410001CE43AF51D8B1EEEC3951A851C82851DC2
:1004200083851EF0121107741A29F8E43AFC8B0731
:1004300088828C838FF0EE121107741B29F51CE45F
:100440003AF51D8B1EED2EF51FC3951A851C82856E
:100450001D83851EF0121107741C29F8E43AFC8BE9
:10046000070E88828C838FF0EE121107741D29FC11
:10047000E43AFE8B078C828E838FF0E412110774AE
:100480001E29FCE43AFE8B07A81F08088C828E8385
:100490008FF0E8121107741F29F9E43AFA89828A69
:1004A000838BF0ED021107E582900012F0900010AE
:1004B000E0FFBF0102800302052C90000FE0FEBEAA
:1004C0000313900012E0FD6008BD06028003BD0327
:1004D0000475820122BE0221900012E0FDBD040AD3
:1004E000900011E0FCBC0102800BBD050C900011D6
:1004F000E0FDBD020475820122BE040280030205F4
:1005000097900012E0FEBE040A900011E0FDBD02CB
:10051000028015BE05028003020597900011E0FEDF
:10052000BE0302800302059775820122BF0202808A
:100530000302059790000FE0FFBF0113900012E047
:10054000FE6008BE06028003BE030475820122BF5E
:100550000221900012E0FEBE020A900011E0FDBDF3
:100560000102800BBE010C900011E0FEBE0204757A
:10057000820122BF0421900012E0FFBF020A900016
:1005800011E0FEBE0202800BBF010C900011E0FFE3
:10059000BF03047582012275820022E58290001655
:1005A000F0900015E0FFFE740F5E9013D293FE747E
:1005B000805F4EFF900014E0FEFD75F00284FC7534
:1005C000F008ED84FD900018F0BD01005006900089
:1005D000187401F0900018E0FD75F00284FB9000A3
:1005E00019E4F0ECC39D90001AF090001BEDF09020
:1005F000001CECF090001DE4F0ECC39B90001EF09A
:10060000EEC39D90001FF0900020EDF0ED2CC39BF9
:10061000900021F0900022EEF0900025E4F0900090
:1006200026F090000AEEF090002775F000C007C099
:1006300006C005C0041201D5D004D005D006D007ED
:10064000BE1000E433FB900016E0F50C900013E0C0
:10065000F9850C132EF50A750B008C0D750E0090A4
:100660000018E07A00250DF8EA350EFA740228F534
:100670000DE43AF50EA80B7A00C3E8950DEA648004
:10068000850EF063F08095F0400302095390004717
:10069000E4F0900017F0900023F0900019E0FAC306
:1006A000E50B9A401990001BE0FAC3E50B9A500E37
:1006B0009000237401F0900025E50BF08029900054
:1006C0001AE0FAC3E50B9A401E90001CE0FAC3E55D
:1006D0000B9A50139000237402F090001AE0FA90E5
:1006E0000025E50BC39AF0900023E0FA900025E086
:1006F000F50D850B0F8A10E50C250BF51175120011
:10070000C3E5129E40030208FF900017E02401F0A9
:10071000900047E025E0F0900024E4F0EA60789053
:10072000001DE0F8C3E512984019900020E0F8C3DE
:10073000E51298500E9000247401F0900026E51206
:10074000F0805490001EE0F8C3E51298402090001D
:1007500021E0F8C3E5129850159000247402F0903F
:10076000001EE0F8900026E512C398F08029900062
:100770001FE0F8C3E51298401E900022E0F8C3E5A0
:10078000129850139000247403F090001FE0F8902A
:100790000026E512C398F0900026E0F88512147543
:1007A000150074F8251550030208B08515F005F002
:1007B000EF8002C313D5F0FB20E0030208ABC001B9
:1007C000E51575F004A42427F516740035F0F51727
:1007D000851682851783E0F9C3E50F99D001500390
:1007E0000208ABC001851682851783A3A3E0F9C375
:1007F000E50F99D00140030208ABC0018516828540
:100800001783A3E0F9C3E51499D00150030208ABA4
:10081000C001851682851783A3A3A3E0F9C3E5145D
:1008200099D00140030208ABEB600A900047E04317
:10083000E001F0807BE5106068900024E0F516E0B0
:10084000605FC001900007E8F0900008EDF0850DB2
:1008500082C007C006C005C004C003C002C00012A9
:100860000170A982D00090000FE9F0900010E5100F
:10087000F0900011E516F0851582C001C000120449
:10088000A7E582D000D001D002D003D004D005D09B
:1008900006D007D0016014900047E043E001F080EB
:1008A0000F900047E043E001F0800505150207A224
:1008B000900017E0F8B80842C004E92512F890004B
:1008C00047E0FC900055E8F0900056ECF08511826E
:1008D000C007C006C005C004C003C002C001120E9C
:1008E00096D001D002D003D004D005D006D0079016
:1008F0000047E4F0900017F0D004051202070090C2
:100900000017E0FAE060477408C39AFA900047E0E5
:100910008AF005F0800225E0D5F0FB900047F0E575
:1009200013250BFAE0F8900055E50AF0900056E820
:10093000F08A82C007C006C005C004C003C001120F
:100940000E96D001D003D004D005D006D007050BF9
:0709500002065A900000228C
:1013D2003F065B4F666D7D077F6F777C395E797163
:0213E200408049
:0300000002004CAF
:100008000000E2FBEAF2802C0000E0FBEAF080242A
:10001800E6B50202EBF62200E2B50202EBF222009C
:10002800E0B50202EBF02230F6E0A88220F5D3EA30
:10003800C6F582228B822230F6E6A88220F5D98086
:01004800CFE8
:0300A5000200490D
:03004900020A6147
:10095700E58290004CF0900049E0FFFE75F00284BC
:10096700FD75F008EE842D2404F51890004EE4F090
:1009770090004F7410F07427A3F090004CE09000A3
:100987004DF090004AE0FCA3E0FD900048E0FB7AC0
:1009970005EA7003020A5AC00390004FE0F8A3E08B
:1009A700F990005FE8F0E9A3F08C828D83C007C05F
:1009B70005C004C002C001C00012107AAB82AE832A
:1009C700900067740AF0E4A3F08B828E83121122E1
:1009D700AB82D000D001900051EBF090005F740A19
:1009E700F0E4A3F08882898312107AAB82AE83D0B9
:1009F70002D004D005D00790004FEBF0EEA3F090A3
:100A07000051E0F519D003E0600690004E7401F044
:100A170090004EE0603990004DE0FE900013EBF03F
:100A2700900014EFF0900015E519F08E82C007C012
:100A370006C005C004C003C00212059BD002D00344
:100A4700D004D005D006D00790004DE5182EF01A37
:100A570002099890004DE0F5822275BA8090FE0059
:100A6700E4F0900190120F0C120D82120E517E06C7
:100A77007F6CC3EE9410EF946C506490000174384F
:100A8700F090000274E4F07413A3F07480A3F0757F
:100A97008200C007C0061200A89000017430F090D1
:100AA700000274F8F07413A3F07480A3F075820049
:100AB7001200A8D006D007900048E4F090004974CF
:100AC70020F090004AEEF0EFA3F0758200C007C057
:100AD70006120957D006D0070EBE00960F80931254
:100AE7000E517E107F6CC3EE9442EF946C5056907B
:100AF7000048E4F09000497418F090004AEEF0EFD7
:100B0700A3F0758200C007C006120957D006D007A8
:100B17008E048F0574672CFC742B3DFD9000487480
:100B270020F09000497418F090004AECF0EDA3F023
:100B3700758200C007C006120957D006D0070EBE3F
:100B470000A40F80A1120E517E427F6CC3EE9474F5
:100B5700EF946C4003020C0A900048E4F0900049BF
:100B6700740CF090004AEEF0EFA3F0758200C00716
:100B7700C006120957D006D0078E048F0574392C8A
:100B8700FA74303DFB9000487410F0900049740CE3
:100B9700F090004AEAF0EBA3F0758200C007C006A8
:100BA700C005C004120957D004D00574672CFC7423
:100BB7002B3DFD9000487420F0900049740CF09094
:100BC700004AECF0EDA3F0758200120957D006D069
:100BD7000774352EFC74823FFD9000487430F09006
:100BE7000049740CF090004AECF0EDA3F075820018
:100BF700C007C006120957D006D0070EBE00010F66
:100C0700020B538E048F0574322CFCE43DFDC007A4
:100C1700C006C005C004120E51D004D005D006D0BE
:100C270007C3EE9CEF9D4003020CF48E028F0390E6
:100C370000677464F0E4A3F08A828B83C007C00660
:100C4700C005C004C003C002121122A882A9839064
:100C57000048E4F09000497438F090004AE8F0E961
:100C6700A3F0758200120957D002D00374172AF82F
:100C7700E43BF99000677464F0E4A3F08882898309
:100C8700C003C002121122A882A983900048E4F091
:100C97009000497416F090004AE8F0E9A3F07582D5
:100CA70054120957D002D003742D2AFAE43BFB9063
:100CB70000677464F0E4A3F08A828B83121122AA7E
:100CC70082AB83900048741CF09000497416F09032
:100CD700004AEAF0EBA3F0758254120957D004D00A
:100CE70005D006D0070EBE00010F020C28120E51C8
:100CF7007E507F008E048F05C3EC94C8ED9400509E
:100D07003D90006774E8F07403A3F08C828D83C074
:100D170007C006121122AC82AD83900048E4F09020
:100D270000497440F090004AECF0EDA3F0758200A2
:0F0D3700120957D006D0070EBE00B90F80B622A2
:1013E40020534556454E2D5345474D454E542044B4
:1013F400454D4F00202D2D2D2D2D2D2D2D2D2D2DF9
:081404002D2D2D2D2D2D2D00A5
:100D4600E582900052F075827812102275820012A8
:100D5600104E900052E0F58212104E021019E582F4
:100D6600900053F075827812102275824012104E50
:100D7600900053E0F58212104E0210199000641292
:100D86000FC2758200120D46758210120D467582CD
:100D960040120D46758281120D467582CC120D46A3
:100DA6007582A1120D467582C8120D467582A6126D
:100DB6000D467582A4120D467582A8120D467582DF
:100DC6003F120D467582D3120D46758200120D46EE
:100DD6007582D5120D467582F0120D467582D912AE
:100DE6000D467582F1120D467582DA120D46758230
:100DF60012120D467582DB120D46758240120D46A3
:100E0600758220120D46758200120D4675828D126E
:100E16000D46758214120D46758220120D46758296
:100E260000120D467582AF120D46900064020FC285
:100E3600E582900054F0E0FFBF01067582AF020D17
:100E460046EF70067582AE120D46227F008F06743D
:100E5600B02EF582C007120D46758200120D46753A
:100E66008210120D46758278121022758240121079
:100E76004ED0077E00758200C007C00612104ED005
:100E860006D0070EBE800040EC0FBF080040BE2211
:100E9600E582900057F0E0FF24804009900055E07D
:100EA600FE24C05001227440C39E75F00884FE756E
:100EB6008278C007C00612102275820012104ED02A
:100EC6000674B02EF58212104ED007740F5FF582AD
:100ED600C00712104ED007EFC4540FFF4307108F00
:100EE6008212104E75827812102275824012104EB0
:100EF600900056E0F58212104E02101943BA305394
:100F0600B1F353B2F322AF83E582900058F0EFA31A
:100F1600F043BA80120F02900058E0F5F0A3E045C6
:100F2600F070099000587464F0E4A3F090FE01E0BC
:100F3600FE7F0090005F74012EF0E43FA3F0905D09
:100F4600C012107AAE82AF83900058E0FCA3E0FD99
:100F560090005FECF0EDA3F08E828F8312107AAED4
:100F660082E583C313CE13CEFFC3EE9404EF940041
:100F7600500790005AE4F08011EE24FCFEEF34FF97
:100F8600C313CE13CE90005AEEF090005AE024C060
:100F9600500690005A743FF090FE8074C0F09000A6
:100FA6005AE0543FFF90FE80E04FF090FE88E053F9
:100FB600E0FEF090FE81E053E07FF022AF83E58211
:100FC60090005BF0EFA3F090005BE0FEA3E0FF7CF7
:100FD600007D00C3EC9EED9F50147AE87B031ABA9D
:100FE600FF011BEA4B70F70CBC00E80D80E5227F81
:100FF600C890FE82E020E606DFF77582012290FEA9
:1010060082E053E0BFF07582002290FE817401F009
:10101600020FF590FE817406F0020FF5E58290004E
:101026005DF0E090FE86F090FE817409F0120FF5F7
:10103600E5827003F5822290FE82E05402B401003C
:10104600B39200E433F58222E58290005EF0E090F0
:10105600FE86F090FE81740AF0120FF5E5827003A9
:10106600F5822290FE82E05402B40100B39201E4BC
:1010760033F58222AF83E582900061F0EFA3F09012
:101086000063E4F0A3F090005FE0FEA3E0FF7D10B4
:10109600900061E0FBA3E0FC900065235401F0EBB7
:1010A6002BFBEC33FC900061EBF0ECA3F0900063BB
:1010B600E0FBA3E0FCEB2BFBEC33FC900063EBF0D6
:1010C600ECA3F0900065E06008900063E043E00167
:1010D600F0900063E0FBA3E0FCC3EB9EEC9F4013A3
:1010E600900063EBC39EF0EC9FA3F0900061E04399
:1010F600E001F0DD9B900061E0FEA3E08E82F583C7
:0111060022C6
:06007B00E478FFF6D8FD59
:100059007900E94400601B7A0090140C786C75A053
:1000690000E493F2A308B8000205A0D9F4DAF27506
:02007900A0FFE6
:1011070020F71130F6138883A88220F509F6A88303
:101117007583002280FEF280F5F022AF83E582908E
:101127000069F0EFA3F090006BE4F0900069E0FE37
:10113700A3E0FF7D00900067E0FBA3E0FC235401E0
:101147007036EB2BFBEC33FC900067EBF0ECA3F075
:10115700900067E0FBA3E0FCC3EE9BEF9C5011EC13
:10116700C313CB13CBFC900067EBF0ECA3F0800824
:101177000D90006BEDF080BD90006BE0FF90006973
:10118700E0FDA3E0FE900067E0FBA3E0FCC3ED9B5E
:10119700EE9C400B900069EDC39BF0EE9CA3F09092
:1011A7000067E0FDA3E0C313CD13CDFE900067ED0C
:1011B700F0EEA3F08F061FEE70C3900069E0FEA368
:0611C700E08E82F5832298
:100081007800E84400600A790175A000E4F309D81A
:10009100FC786BE84400600C7901900001E4F0A366
:0400A100D8FCD9FAB4
:0D004C007581201211E9E582600302004970
:1011CD0020F71430F6148883A88220F507E6A8834B
:1011DD0075830022E280F7E49322E02275820022DB
:00000001FF
