:2000A800E582900005F0E0900006F0900001E0FF900002E0FCA3E0FDA3E0FE8C828D838E5B
:2000C800F0120F597003020169900006E0FB8C008D018E0275080074FB25084075C0078897
:2000E8008289838AF0120F5924E0F509AF09BF6100D0075059C000C001C002E5082BFAE5E2
:200108000975F005A42479F8740F35F0F9E50828F582E439F583E493F9900055EFF09000A5
:2001280056E9F08A82C007C006C005C004C003C002C001C000120C22D000D001D002D003DA
:20014800D004D005D006D007D002D001D00005088085900006E02406F00CBC00010D020054
:08016800C3900006E0F58222BD
:200F7900000000000000004F00000007000700147F147F14242A7F2A122313086462364935
:200F99005522500005030000001C2241000041221C0014083E081408083E08080050300017
:200FB900000808080808006060000020100804023E5149453E00427F4000426151494621F2
:200FD90041454B311814127F1027454545393C4A4949300171090503364949493606494950
:200FF900291E003636000000563600000814224100141414141400412214080201510906D4
:20101900324979413E7E1111117E7F494949363E414141227F4141221C7F494949417F0900
:201039000909013E4149497A7F0808087F00417F41002040413F017F081422417F404040C4
:20105900407F020C027F7F0408107F3E4141413E7F090909063E4151215E7F09192946468B
:201079004949493101017F01013F4040403F1F2040201F3F4038403F631408146307087021
:2010990008076151494543007F41410002040810200041417F000402010204404040404018
:2010B900010204000020545454787F484444383844444420384444487F3854545418087E78
:2010D900090102064949493F7F0804047800447D40002040443D007F1028440000417F40E7
:2010F900007C0418047C7C0804047838444444387C14141408081414187C7C08040408481F
:2011190054545420043F4440203C4040207C1C2040201C3C4030403C44281028440C5050E7
:20113900503C4464544C44000836410000007F000000413608000201020402080C0E0C08C0
:05115900081838180819
:20017000E582900009F0E0FF900007E0FEC3EF9E402B900008E0FC7D008F027B00ECC39A2A
:20019000FCED9BFD8E02C3EA9CEB64808DF063F08095F0500475820422758203229000082C
:2001B000E0FCE4FDFBECC39FFCED9BFD7F00C3EE9CEF64808DF063F08095F05004758201E8
:2001D0002275820222AFF0AE83E58290000BF0EEA3F0EFA3F090000AE0F51BAE1B8E0575B2
:2001F000F008ED84FD90000EF0BD0100500690000E7401F075F002EE84FE90000EE0FD751D
:20021000F00284F51A90000BE0F9A3E0FAA3E0FB89008A048B0788828C838FF0E4120E9302
:200230000429F51CE43AF51D8B1EE51BC39D851C82851D83851EF0120E93740229F8E43AF4
:20025000FC8B0788828C838FF0EE120E93740329F8E43AFC8B0788828C838FF0E51B120ECB
:2002700093740429F51CE43AF51D8B1EEEC39DF51F851C82851D83851EF0120E93740529BE
:20029000F8E43AFC8B0788828C838FF0EE120E93740629F8E43AFC8B0788828C838FF0EEA4
:2002B000120E93740729F8E43AFC8B0788828C838FF0E51B120E93740829F8E43AFC8B079F
:2002D00088828C838FF0E51F120E93740929F8E43AFC8B0788828C838FF0E4120E93740AC8
:2002F00029F8E43AFC8B0788828C838FF0EE120E93740B29F8E43AFC8B0788828C838FF004
:20031000EE120E93740C29F8E43AFC8B0788828C838FF0E4120E93740D29F8E43AFC8B0762
:2003300088828C838FF0E4120E93740E29F8E43AFC8B0788828C838FF0EE120E93740F294A
:20035000F8E43AFC8B0788828C838FF0ED120E93741029F8E43AFC8B0788828C838FF0E4E4
:20037000120E93741129F8E43AFC8B0788828C838FF0E4120E93741229F8E43AFC8B07885E
:20039000828C838FF0ED120E93741329F8E43AFC8B0788828C838FF0EE120E93741429F867
:2003B000E43AFC8B0788828C838FF0E4120E93741529F8E43AFC8B0788828C838FF0EE1264
:2003D0000E93741629F8E43AFC8B0788828C838FF0ED120E93741729F8E43AFC8B0788827B
:2003F0008C838FF0E51B120E93741829F8E43AFC8B0788828C838FF0E4120E93741929F579
:200410001CE43AF51D8B1EEEC3951A851C82851D83851EF0120E93741A29F8E43AFC8B078E
:2004300088828C838FF0EE120E93741B29F51CE43AF51D8B1EEDC3951A2E851C82851D83FC
:20045000851EF0120E93741C29F51CE43AF51D8B1E8E070F851C82851D83851EF0EF120E15
:2004700093741D29F8E43AFC8B0788828C838FF0E4120E93741E29F8E43AFC8B07EE2DFED4
:200490000E0E88828C838FF0EE120E93741F29F9E43AFA89828A838BF0ED020E93E5829010
:2004B0000012F0900010E0FFBF016890000FE0FEBE0313900012E0FD6008BD06028003BD46
:2004D000030475820122BE0221900012E0FDBD040A900011E0FCBC0102800BBD050C90009B
:2004F00011E0FDBD020475820122BE04028003020589900012E0FEBE040A900011E0FDBDC3
:200510000202800BBE0572900011E0FEBE036A75820122BF026390000FE0FFBF011390003E
:2005300012E0FE6008BE06028003BE030475820122BF0221900012E0FEBE020A900011E07E
:20055000FDBD0102800BBE010C900011E0FEBE020475820122BF0421900012E0FFBF020AEB
:20057000900011E0FEBE0202800BBF010C900011E0FFBF03047582012275820022E5829063
:200590000016F0900015E0FFFE740F5E90115E93FE74805F4EFF900014E0FEFD75F0028448
:2005B000FC75F008ED84FD900018F0BD010050069000187401F0900019E4F0900018E0FD99
:2005D000ECC39D90001AF090001BEDF090001CECF090001DE4F08D0375F002EB84FB8C02A5
:2005F000EAC39B90001EF0EEC39D90001FF0900020EDF0EB2A900021F0900022EEF09000B5
:2006100025E4F0900026F090000AEEF090002775F000C007C006C005C0041201D5D004D0F5
:2006300005D006D007BE1000E433FB900016E0F50C900013E0F9850C132EF50A750B008C38
:200650000D750E00900018E07A00250DF8EA350EFA740228F50DE43AF50EA80B7A00C3E80E
:20067000950DEA6480850EF063F08095F04003020948900047E4F0900017F0900023F09014
:200690000019E0FAC3E50B9A401990001BE0FAC3E50B9A500E9000237401F0900025E50BC4
:2006B000F0802990001AE0FAC3E50B9A401E90001CE0FAC3E50B9A50139000237402F09083
:2006D000001AE0FA900025E50BC39AF0900023E0FA900025E0F50D850B0F8A10E50C250BA6
:2006F000F511751200C3E5129E40030208F4900017E02401F0900047E025E0F0900024E4E4
:20071000F0EA607890001DE0F8C3E512984019900020E0F8C3E51298500E9000247401F096
:20073000900026E512F0805490001EE0F8C3E512984020900021E0F8C3E512985015900030
:20075000247402F090001EE0F8900026E512C398F0802990001FE0F8C3E51298401E900011
:2007700022E0F8C3E5129850139000247403F090001FE0F8900026E512C398F0900026E08A
:20079000F885121475150074F8251550030208A58515F005F0EF8002C313D5F0FB20E003EB
:2007B0000208A0C001E51575F004A42427F516740035F0F517851682851783E0F9C3E50FF0
:2007D00099D00150030208A0C001851682851783A3A3E0F9C3E50F99D00140030208A0C0B8
:2007F00001851682851783A3E0F9C3E51499D00150030208A0C001851682851783A3A3A327
:20081000E0F9C3E51499D00140030208A0EB600A900047E043E001F0807BE5106068900074
:2008300024E0F516E0605FC001900007E8F0900008EDF0850D82C007C006C005C004C00368
:20085000C002C000120170A982D00090000FE9F0900010E510F0900011E516F0851582C023
:2008700001C0001204ADE582D000D001D002D003D004D005D006D007D0016014900047E0E5
:2008900043E001F0800F900047E043E001F080050515020797900017E0F8B80842C004E96D
:2008B0002512F8900047E0FC900055E8F0900056ECF0851182C007C006C005C004C003C016
:2008D00002C001120C22D001D002D003D004D005D006D007900047E4F0900017F0D004051E
:2008F000120206F5900017E0FAE060477408C39AFA900047E08AF005F0800225E0D5F0FB91
:20091000900047F0E513250BFAE0F8900055E50AF0900056E8F08A82C007C006C005C00462
:1C093000C003C001120C22D001D003D004D005D006D007050B02064F90000022D4
:12115E003F065B4F666D7D077F6F777C395E7971408017
:0300000002004CAF
:200008000000E2FBEAF2802C0000E0FBEAF08024E6B50202EBF62200E2B50202EBF22200DE
:20002800E0B50202EBF02230F6E0A88220F5D3EAC6F582228B822230F6E6A88220F5D980EE
:01004800CFE8
:0300A5000200490D
:03004900020A5652
:20094C00E58290004CF0900049E0FFFE75F00284FD75F008EE842D2404F51890004E740126
:20096C00F090004FC4F07427A3F090004CE090004DF090004AE0FCA3E0FD900048E0FB7ACE
:20098C0005EA7003020A4FC00390004FE0F8A3E0F990005FE8F0E9A3F08C828D83C007C0B0
:2009AC0005C004C002C001C000120E06AB82AE83900067740AF0E4A3F08B828E83120EAED3
:2009CC00AB82D000D001900051EBF090005F740AF0E4A3F088828983120E06AB82AE83D043
:2009EC0002D004D005D00790004FEBF0EEA3F0900051E0F519D003E0600690004E7401F003
:200A0C0090004EE0603990004DE0FE900013EBF0900014EFF0900015E519F08E82C007C08D
:200A2C0006C005C004C003C00212058DD002D003D004D005D006D00790004DE5182EF01AE5
:200A4C0002098D90004DE0F5822275BA8090FE00E4F0900190120C98120B0E120BDD7E060B
:200A6C007F6C9000017438F09000027470F07411A3F07480A3F0758200C007C0061200A80F
:200A8C009000017430F09000027484F07411A3F07480A3F07582001200A8D006D00790001E
:200AAC0048E4F09000497420F090004AEEF0EFA3F0758200C007C00612094CD006D0070ED1
:060ACC00BE009F0F809C9C
:2011700020534556454E2D5345474D454E54205445535400202D2D2D2D2D2D2D2D2D2D2D0F
:081190002D2D2D2D2D2D2D001C
:200AD200E582900052F0758278120DAE758200120DDA900052E0F582120DDA020DA5E58252
:200AF200900053F0758278120DAE758240120DDA900053E0F582120DDA020DA590006412B8
:200B12000D4E758200120AD2758210120AD2758240120AD2758281120AD27582CC120AD252
:200B32007582A1120AD27582C8120AD27582A6120AD27582A4120AD27582A8120AD27582D8
:200B52003F120AD27582D3120AD2758200120AD27582D5120AD27582F0120AD27582D91248
:200B72000AD27582F1120AD27582DA120AD2758212120AD27582DB120AD2758240120AD216
:200B9200758220120AD2758200120AD275828D120AD2758214120AD2758220120AD27582F2
:200BB20000120AD27582AF120AD2900064020D4EE582900054F0E0FFBF01067582AF020ABE
:200BD200D2EF70067582AE020AD2227F008F0674B02EF582C007120AD2758200120AD2753B
:200BF2008210120AD2758278120DAE758240120DDAD0077E00758200C007C006120DDAD055
:200C120006D0070EBE800040EC0FBF080040BE22E582900057F0E0FF24804009900055E0A8
:200C3200FE24C05001227440C39E75F00884FE758278C007C006120DAE758200120DDAD0C0
:200C52000674B02EF582120DDAD007740F5FF582C007120DDAD007EFC4540FFF4307108FF5
:1C0C720082120DDA758278120DAE758240120DDA900056E0F582120DDA020DA595
:200C8E0043BA3053B1F353B2F322AF83E582900058F0EFA3F043BA80120C8E900058E0F52F
:200CAE00F0A3E045F070099000587464F0E4A3F090FE01E0FE7F0090005F74012EF0E43F4D
:200CCE00A3F0905DC0120E06AE82AF83900058E0FCA3E0FD90005FECF0EDA3F08E828F838D
:200CEE00120E06AE82E583C313CE13CEFFC3EE9404EF9400500790005AE4F08011EE24FC24
:200D0E00FEEF34FFC313CE13CE90005AEEF090005AE024C0500690005A743FF090FE807445
:200D2E00C0F090005AE0543FFF90FE80E04FF090FE88E053E0FEF090FE81E053E07FF022A2
:200D4E00AF83E58290005BF0EFA3F090005BE0FEA3E0FF7C007D00C3EC9EED9F50147AE8AC
:200D6E007B031ABAFF011BEA4B70F70CBC00E80D80E5227FC890FE82E020E606DFF7758208
:200D8E00012290FE82E053E0BFF07582002290FE817401F0020D8190FE817406F0020D812A
:200DAE00E58290005DF0E090FE86F090FE817409F0120D81E5827003F5822290FE82E0542A
:200DCE0002B40100B39200E433F58222E58290005EF0E090FE86F090FE81740AF0120D8113
:180DEE00E5827003F5822290FE82E05402B40100B39201E433F5822289
:200E0600AF83E582900061F0EFA3F0900063E4F0A3F090005FE0FEA3E0FF7D10900061E0C9
:200E2600FBA3E0FC900065235401F0EB2BFBEC33FC900061EBF0ECA3F0900063E0FBA3E00D
:200E4600FCEB2BFBEC33FC900063EBF0ECA3F0900065E06008900063E043E001F090006300
:200E6600E0FBA3E0FCC3EB9EEC9F4013900063EBC39EF0EC9FA3F0900061E043E001F0DDD9
:0D0E86009B900061E0FEA3E08E82F58322C8
:06007B00E478FFF6D8FD59
:200059007900E94400601B7A00901198786C75A000E493F2A308B8000205A0D9F4DAF27539
:02007900A0FFE6
:1B0E930020F71130F6138883A88220F509F6A8837583002280FEF280F5F0225E
:200EAE00AF83E582900069F0EFA3F090006BE4F0900069E0FEA3E0FF7D00900067E0FBA306
:200ECE00E0FC2354017036EB2BFBEC33FC900067EBF0ECA3F0900067E0FBA3E0FCC3EE9BF0
:200EEE00EF9C5011ECC313CB13CBFC900067EBF0ECA3F080080D90006BEDF080BD90006B9B
:200F0E00E0FF900069E0FDA3E0FE900067E0FBA3E0FCC3ED9BEE9C400B900069EDC39BF0E8
:200F2E00EE9CA3F0900067E0FDA3E0C313CD13CDFE900067EDF0EEA3F08F061FEE70C390F4
:0B0F4E000069E0FEA3E08E82F5832224
:200081007800E84400600A790175A000E4F309D8FC786BE84400600C7901900001E4F0A311
:0400A100D8FCD9FAB4
:0D004C00758120120F75E5826003020049E6
:1C0F590020F71430F6148883A88220F507E6A88375830022E280F7E49322E022A7
:040F7500758200225F
:00000001FF
